{
  "contractName": "Storage",
  "abi": [
    {
      "constant": true,
      "inputs": [],
      "name": "_initialized",
      "outputs": [
        {
          "internalType": "bool",
          "name": "",
          "type": "bool"
        }
      ],
      "payable": false,
      "stateMutability": "view",
      "type": "function"
    },
    {
      "constant": true,
      "inputs": [],
      "name": "owner",
      "outputs": [
        {
          "internalType": "address",
          "name": "",
          "type": "address"
        }
      ],
      "payable": false,
      "stateMutability": "view",
      "type": "function"
    }
  ],
  "bytecode": "0x608060405234801561001057600080fd5b5061010d806100206000396000f3fe6080604052348015600f57600080fd5b506004361060325760003560e01c80633072cf601460375780638da5cb5b146057575b600080fd5b603d609f565b604051808215151515815260200191505060405180910390f35b605d60b2565b604051808273ffffffffffffffffffffffffffffffffffffffff1673ffffffffffffffffffffffffffffffffffffffff16815260200191505060405180910390f35b600560149054906101000a900460ff1681565b600560009054906101000a900473ffffffffffffffffffffffffffffffffffffffff168156fea265627a7a723158200c37f79441ebb0b13790bde1c4e07e46edeeaa17b5a497ae143959e9a0c1eddd64736f6c63430005100032",
  "source": "pragma solidity 0.5.16;\r\n\r\ncontract Storage {\r\n  mapping (string => uint256) _uintStorage;\r\n  mapping (string => address) _addressStorage;\r\n  mapping (string => bool) _boolStorage;\r\n  mapping (string => string) _stringStoage;\r\n  mapping (string => bytes4) _bytesStorage;\r\n  address public owner;\r\n  bool public _initialized;\r\n}\r\n",
  "sourcePath": "C:\\Users\\lucus\\Desktop\\proxyContract\\contracts\\Storage.sol",
  "compiler": {
    "name": "solc",
    "version": "0.5.16+commit.9c3226ce.Emscripten.clang"
  },
  "schemaVersion": "3.2.3",
  "updatedAt": "2020-11-08T01:52:43.774Z",
  "devdoc": {
    "methods": {}
  },
  "userdoc": {
    "methods": {}
  }
}